{
  "_format": "hh-sol-artifact-1",
  "contractName": "ERC20My",
  "sourceName": "contracts/ERC20My.sol",
  "abi": [
    {
      "inputs": [
        {
          "internalType": "string",
          "name": "_name",
          "type": "string"
        },
        {
          "internalType": "string",
          "name": "_symbol",
          "type": "string"
        }
      ],
      "stateMutability": "nonpayable",
      "type": "constructor"
    },
    {
      "anonymous": false,
      "inputs": [
        {
          "indexed": true,
          "internalType": "address",
          "name": "owner",
          "type": "address"
        },
        {
          "indexed": true,
          "internalType": "address",
          "name": "spender",
          "type": "address"
        },
        {
          "indexed": false,
          "internalType": "uint256",
          "name": "value",
          "type": "uint256"
        }
      ],
      "name": "Approval",
      "type": "event"
    },
    {
      "anonymous": false,
      "inputs": [
        {
          "indexed": true,
          "internalType": "address",
          "name": "previousOwner",
          "type": "address"
        },
        {
          "indexed": true,
          "internalType": "address",
          "name": "newOwner",
          "type": "address"
        }
      ],
      "name": "OwnershipTransferred",
      "type": "event"
    },
    {
      "anonymous": false,
      "inputs": [
        {
          "indexed": true,
          "internalType": "address",
          "name": "from",
          "type": "address"
        },
        {
          "indexed": true,
          "internalType": "address",
          "name": "to",
          "type": "address"
        },
        {
          "indexed": false,
          "internalType": "uint256",
          "name": "value",
          "type": "uint256"
        }
      ],
      "name": "Transfer",
      "type": "event"
    },
    {
      "inputs": [
        {
          "internalType": "address",
          "name": "_allowed",
          "type": "address"
        }
      ],
      "name": "addWhitelist",
      "outputs": [],
      "stateMutability": "nonpayable",
      "type": "function"
    },
    {
      "inputs": [
        {
          "internalType": "address",
          "name": "owner",
          "type": "address"
        },
        {
          "internalType": "address",
          "name": "spender",
          "type": "address"
        }
      ],
      "name": "allowance",
      "outputs": [
        {
          "internalType": "uint256",
          "name": "",
          "type": "uint256"
        }
      ],
      "stateMutability": "view",
      "type": "function"
    },
    {
      "inputs": [
        {
          "internalType": "address",
          "name": "spender",
          "type": "address"
        },
        {
          "internalType": "uint256",
          "name": "amount",
          "type": "uint256"
        }
      ],
      "name": "approve",
      "outputs": [
        {
          "internalType": "bool",
          "name": "",
          "type": "bool"
        }
      ],
      "stateMutability": "nonpayable",
      "type": "function"
    },
    {
      "inputs": [
        {
          "internalType": "address",
          "name": "account",
          "type": "address"
        }
      ],
      "name": "balanceOf",
      "outputs": [
        {
          "internalType": "uint256",
          "name": "",
          "type": "uint256"
        }
      ],
      "stateMutability": "view",
      "type": "function"
    },
    {
      "inputs": [],
      "name": "decimals",
      "outputs": [
        {
          "internalType": "uint8",
          "name": "",
          "type": "uint8"
        }
      ],
      "stateMutability": "view",
      "type": "function"
    },
    {
      "inputs": [
        {
          "internalType": "address",
          "name": "spender",
          "type": "address"
        },
        {
          "internalType": "uint256",
          "name": "subtractedValue",
          "type": "uint256"
        }
      ],
      "name": "decreaseAllowance",
      "outputs": [
        {
          "internalType": "bool",
          "name": "",
          "type": "bool"
        }
      ],
      "stateMutability": "nonpayable",
      "type": "function"
    },
    {
      "inputs": [
        {
          "internalType": "address",
          "name": "spender",
          "type": "address"
        },
        {
          "internalType": "uint256",
          "name": "addedValue",
          "type": "uint256"
        }
      ],
      "name": "increaseAllowance",
      "outputs": [
        {
          "internalType": "bool",
          "name": "",
          "type": "bool"
        }
      ],
      "stateMutability": "nonpayable",
      "type": "function"
    },
    {
      "inputs": [
        {
          "internalType": "uint256",
          "name": "amount",
          "type": "uint256"
        }
      ],
      "name": "mintSelf",
      "outputs": [],
      "stateMutability": "nonpayable",
      "type": "function"
    },
    {
      "inputs": [],
      "name": "name",
      "outputs": [
        {
          "internalType": "string",
          "name": "",
          "type": "string"
        }
      ],
      "stateMutability": "view",
      "type": "function"
    },
    {
      "inputs": [],
      "name": "owner",
      "outputs": [
        {
          "internalType": "address",
          "name": "",
          "type": "address"
        }
      ],
      "stateMutability": "view",
      "type": "function"
    },
    {
      "inputs": [],
      "name": "renounceOwnership",
      "outputs": [],
      "stateMutability": "nonpayable",
      "type": "function"
    },
    {
      "inputs": [],
      "name": "symbol",
      "outputs": [
        {
          "internalType": "string",
          "name": "",
          "type": "string"
        }
      ],
      "stateMutability": "view",
      "type": "function"
    },
    {
      "inputs": [],
      "name": "totalSupply",
      "outputs": [
        {
          "internalType": "uint256",
          "name": "",
          "type": "uint256"
        }
      ],
      "stateMutability": "view",
      "type": "function"
    },
    {
      "inputs": [
        {
          "internalType": "address",
          "name": "to",
          "type": "address"
        },
        {
          "internalType": "uint256",
          "name": "amount",
          "type": "uint256"
        }
      ],
      "name": "transfer",
      "outputs": [
        {
          "internalType": "bool",
          "name": "",
          "type": "bool"
        }
      ],
      "stateMutability": "nonpayable",
      "type": "function"
    },
    {
      "inputs": [
        {
          "internalType": "address",
          "name": "from",
          "type": "address"
        },
        {
          "internalType": "address",
          "name": "to",
          "type": "address"
        },
        {
          "internalType": "uint256",
          "name": "amount",
          "type": "uint256"
        }
      ],
      "name": "transferFrom",
      "outputs": [
        {
          "internalType": "bool",
          "name": "",
          "type": "bool"
        }
      ],
      "stateMutability": "nonpayable",
      "type": "function"
    },
    {
      "inputs": [
        {
          "internalType": "address",
          "name": "newOwner",
          "type": "address"
        }
      ],
      "name": "transferOwnership",
      "outputs": [],
      "stateMutability": "nonpayable",
      "type": "function"
    }
  ],
  "bytecode": "0x60806040523480156200001157600080fd5b50604051620024b6380380620024b6833981810160405281019062000037919062000580565b81818160039080519060200190620000519291906200045e565b5080600490805190602001906200006a9291906200045e565b5050506200008d62000081620000f960201b60201c565b6200010160201b60201c565b620000ad620000a1620000f960201b60201c565b6200010160201b60201c565b620000d1620000c1620001c760201b60201c565b620f4240620001f160201b60201c565b620000f1620000e5620001c760201b60201c565b6200036a60201b60201c565b50506200091c565b600033905090565b6000600560009054906101000a900473ffffffffffffffffffffffffffffffffffffffff16905081600560006101000a81548173ffffffffffffffffffffffffffffffffffffffff021916908373ffffffffffffffffffffffffffffffffffffffff1602179055508173ffffffffffffffffffffffffffffffffffffffff168173ffffffffffffffffffffffffffffffffffffffff167f8be0079c531659141344cd1fd0a4f28419497f9722a3daafe3b4186f6b6457e060405160405180910390a35050565b6000600560009054906101000a900473ffffffffffffffffffffffffffffffffffffffff16905090565b600073ffffffffffffffffffffffffffffffffffffffff168273ffffffffffffffffffffffffffffffffffffffff16141562000264576040517f08c379a00000000000000000000000000000000000000000000000000000000081526004016200025b9062000674565b60405180910390fd5b62000278600083836200045460201b60201c565b80600260008282546200028c919062000723565b92505081905550806000808473ffffffffffffffffffffffffffffffffffffffff1673ffffffffffffffffffffffffffffffffffffffff1681526020019081526020016000206000828254620002e3919062000723565b925050819055508173ffffffffffffffffffffffffffffffffffffffff16600073ffffffffffffffffffffffffffffffffffffffff167fddf252ad1be2c89b69c2b068fc378daa952ba7f163c4a11628f55a4df523b3ef836040516200034a919062000696565b60405180910390a362000366600083836200045960201b60201c565b5050565b6200037a620000f960201b60201c565b73ffffffffffffffffffffffffffffffffffffffff16620003a0620001c760201b60201c565b73ffffffffffffffffffffffffffffffffffffffff1614620003f9576040517f08c379a0000000000000000000000000000000000000000000000000000000008152600401620003f09062000652565b60405180910390fd5b6001600660008373ffffffffffffffffffffffffffffffffffffffff1673ffffffffffffffffffffffffffffffffffffffff16815260200190815260200160002060006101000a81548160ff02191690831515021790555050565b505050565b505050565b8280546200046c90620007c0565b90600052602060002090601f016020900481019282620004905760008555620004dc565b82601f10620004ab57805160ff1916838001178555620004dc565b82800160010185558215620004dc579182015b82811115620004db578251825591602001919060010190620004be565b5b509050620004eb9190620004ef565b5090565b5b808211156200050a576000816000905550600101620004f0565b5090565b6000620005256200051f84620006dc565b620006b3565b9050828152602081018484840111156200053e57600080fd5b6200054b8482856200078a565b509392505050565b600082601f8301126200056557600080fd5b8151620005778482602086016200050e565b91505092915050565b600080604083850312156200059457600080fd5b600083015167ffffffffffffffff811115620005af57600080fd5b620005bd8582860162000553565b925050602083015167ffffffffffffffff811115620005db57600080fd5b620005e98582860162000553565b9150509250929050565b60006200060260208362000712565b91506200060f82620008ca565b602082019050919050565b600062000629601f8362000712565b91506200063682620008f3565b602082019050919050565b6200064c8162000780565b82525050565b600060208201905081810360008301526200066d81620005f3565b9050919050565b600060208201905081810360008301526200068f816200061a565b9050919050565b6000602082019050620006ad600083018462000641565b92915050565b6000620006bf620006d2565b9050620006cd8282620007f6565b919050565b6000604051905090565b600067ffffffffffffffff821115620006fa57620006f96200088a565b5b6200070582620008b9565b9050602081019050919050565b600082825260208201905092915050565b6000620007308262000780565b91506200073d8362000780565b9250827fffffffffffffffffffffffffffffffffffffffffffffffffffffffffffffffff038211156200077557620007746200082c565b5b828201905092915050565b6000819050919050565b60005b83811015620007aa5780820151818401526020810190506200078d565b83811115620007ba576000848401525b50505050565b60006002820490506001821680620007d957607f821691505b60208210811415620007f057620007ef6200085b565b5b50919050565b6200080182620008b9565b810181811067ffffffffffffffff821117156200082357620008226200088a565b5b80604052505050565b7f4e487b7100000000000000000000000000000000000000000000000000000000600052601160045260246000fd5b7f4e487b7100000000000000000000000000000000000000000000000000000000600052602260045260246000fd5b7f4e487b7100000000000000000000000000000000000000000000000000000000600052604160045260246000fd5b6000601f19601f8301169050919050565b7f4f776e61626c653a2063616c6c6572206973206e6f7420746865206f776e6572600082015250565b7f45524332303a206d696e7420746f20746865207a65726f206164647265737300600082015250565b611b8a806200092c6000396000f3fe608060405234801561001057600080fd5b50600436106101005760003560e01c8063720eacad11610097578063a9059cbb11610066578063a9059cbb146102b1578063dd62ed3e146102e1578063f2fde38b14610311578063f80f5dd51461032d57610100565b8063720eacad146102295780638da5cb5b1461024557806395d89b4114610263578063a457c2d71461028157610100565b8063313ce567116100d3578063313ce567146101a157806339509351146101bf57806370a08231146101ef578063715018a61461021f57610100565b806306fdde0314610105578063095ea7b31461012357806318160ddd1461015357806323b872dd14610171575b600080fd5b61010d610349565b60405161011a9190611506565b60405180910390f35b61013d60048036038101906101389190611275565b6103db565b60405161014a91906114eb565b60405180910390f35b61015b6103fe565b6040516101689190611688565b60405180910390f35b61018b60048036038101906101869190611226565b610408565b60405161019891906114eb565b60405180910390f35b6101a9610437565b6040516101b691906116a3565b60405180910390f35b6101d960048036038101906101d49190611275565b610440565b6040516101e691906114eb565b60405180910390f35b610209600480360381019061020491906111c1565b6104ea565b6040516102169190611688565b60405180910390f35b610227610532565b005b610243600480360381019061023e91906112b1565b6105ba565b005b61024d610668565b60405161025a91906114d0565b60405180910390f35b61026b610692565b6040516102789190611506565b60405180910390f35b61029b60048036038101906102969190611275565b610724565b6040516102a891906114eb565b60405180910390f35b6102cb60048036038101906102c69190611275565b61080e565b6040516102d891906114eb565b60405180910390f35b6102fb60048036038101906102f691906111ea565b610831565b6040516103089190611688565b60405180910390f35b61032b600480360381019061032691906111c1565b6108b8565b005b610347600480360381019061034291906111c1565b6109b0565b005b606060038054610358906117b8565b80601f0160208091040260200160405190810160405280929190818152602001828054610384906117b8565b80156103d15780601f106103a6576101008083540402835291602001916103d1565b820191906000526020600020905b8154815290600101906020018083116103b457829003601f168201915b5050505050905090565b6000806103e6610a87565b90506103f3818585610a8f565b600191505092915050565b6000600254905090565b600080610413610a87565b9050610420858285610c5a565b61042b858585610ce6565b60019150509392505050565b60006012905090565b60008061044b610a87565b90506104df818585600160008673ffffffffffffffffffffffffffffffffffffffff1673ffffffffffffffffffffffffffffffffffffffff16815260200190815260200160002060008973ffffffffffffffffffffffffffffffffffffffff1673ffffffffffffffffffffffffffffffffffffffff168152602001908152602001600020546104da91906116da565b610a8f565b600191505092915050565b60008060008373ffffffffffffffffffffffffffffffffffffffff1673ffffffffffffffffffffffffffffffffffffffff168152602001908152602001600020549050919050565b61053a610a87565b73ffffffffffffffffffffffffffffffffffffffff16610558610668565b73ffffffffffffffffffffffffffffffffffffffff16146105ae576040517f08c379a00000000000000000000000000000000000000000000000000000000081526004016105a5906115e8565b60405180910390fd5b6105b86000610f67565b565b60011515600660006105ca610a87565b73ffffffffffffffffffffffffffffffffffffffff1673ffffffffffffffffffffffffffffffffffffffff16815260200190815260200160002060009054906101000a900460ff16151514610654576040517f08c379a000000000000000000000000000000000000000000000000000000000815260040161064b906115c8565b60405180910390fd5b61066561065f610a87565b8261102d565b50565b6000600560009054906101000a900473ffffffffffffffffffffffffffffffffffffffff16905090565b6060600480546106a1906117b8565b80601f01602080910402602001604051908101604052809291908181526020018280546106cd906117b8565b801561071a5780601f106106ef5761010080835404028352916020019161071a565b820191906000526020600020905b8154815290600101906020018083116106fd57829003601f168201915b5050505050905090565b60008061072f610a87565b90506000600160008373ffffffffffffffffffffffffffffffffffffffff1673ffffffffffffffffffffffffffffffffffffffff16815260200190815260200160002060008673ffffffffffffffffffffffffffffffffffffffff1673ffffffffffffffffffffffffffffffffffffffff168152602001908152602001600020549050838110156107f5576040517f08c379a00000000000000000000000000000000000000000000000000000000081526004016107ec90611648565b60405180910390fd5b6108028286868403610a8f565b60019250505092915050565b600080610819610a87565b9050610826818585610ce6565b600191505092915050565b6000600160008473ffffffffffffffffffffffffffffffffffffffff1673ffffffffffffffffffffffffffffffffffffffff16815260200190815260200160002060008373ffffffffffffffffffffffffffffffffffffffff1673ffffffffffffffffffffffffffffffffffffffff16815260200190815260200160002054905092915050565b6108c0610a87565b73ffffffffffffffffffffffffffffffffffffffff166108de610668565b73ffffffffffffffffffffffffffffffffffffffff1614610934576040517f08c379a000000000000000000000000000000000000000000000000000000000815260040161092b906115e8565b60405180910390fd5b600073ffffffffffffffffffffffffffffffffffffffff168173ffffffffffffffffffffffffffffffffffffffff1614156109a4576040517f08c379a000000000000000000000000000000000000000000000000000000000815260040161099b90611548565b60405180910390fd5b6109ad81610f67565b50565b6109b8610a87565b73ffffffffffffffffffffffffffffffffffffffff166109d6610668565b73ffffffffffffffffffffffffffffffffffffffff1614610a2c576040517f08c379a0000000000000000000000000000000000000000000000000000000008152600401610a23906115e8565b60405180910390fd5b6001600660008373ffffffffffffffffffffffffffffffffffffffff1673ffffffffffffffffffffffffffffffffffffffff16815260200190815260200160002060006101000a81548160ff02191690831515021790555050565b600033905090565b600073ffffffffffffffffffffffffffffffffffffffff168373ffffffffffffffffffffffffffffffffffffffff161415610aff576040517f08c379a0000000000000000000000000000000000000000000000000000000008152600401610af690611628565b60405180910390fd5b600073ffffffffffffffffffffffffffffffffffffffff168273ffffffffffffffffffffffffffffffffffffffff161415610b6f576040517f08c379a0000000000000000000000000000000000000000000000000000000008152600401610b6690611568565b60405180910390fd5b80600160008573ffffffffffffffffffffffffffffffffffffffff1673ffffffffffffffffffffffffffffffffffffffff16815260200190815260200160002060008473ffffffffffffffffffffffffffffffffffffffff1673ffffffffffffffffffffffffffffffffffffffff168152602001908152602001600020819055508173ffffffffffffffffffffffffffffffffffffffff168373ffffffffffffffffffffffffffffffffffffffff167f8c5be1e5ebec7d5bd14f71427d1e84f3dd0314c0f7b2291e5b200ac8c7c3b92583604051610c4d9190611688565b60405180910390a3505050565b6000610c668484610831565b90507fffffffffffffffffffffffffffffffffffffffffffffffffffffffffffffffff8114610ce05781811015610cd2576040517f08c379a0000000000000000000000000000000000000000000000000000000008152600401610cc990611588565b60405180910390fd5b610cdf8484848403610a8f565b5b50505050565b600073ffffffffffffffffffffffffffffffffffffffff168373ffffffffffffffffffffffffffffffffffffffff161415610d56576040517f08c379a0000000000000000000000000000000000000000000000000000000008152600401610d4d90611608565b60405180910390fd5b600073ffffffffffffffffffffffffffffffffffffffff168273ffffffffffffffffffffffffffffffffffffffff161415610dc6576040517f08c379a0000000000000000000000000000000000000000000000000000000008152600401610dbd90611528565b60405180910390fd5b610dd183838361118d565b60008060008573ffffffffffffffffffffffffffffffffffffffff1673ffffffffffffffffffffffffffffffffffffffff16815260200190815260200160002054905081811015610e57576040517f08c379a0000000000000000000000000000000000000000000000000000000008152600401610e4e906115a8565b60405180910390fd5b8181036000808673ffffffffffffffffffffffffffffffffffffffff1673ffffffffffffffffffffffffffffffffffffffff16815260200190815260200160002081905550816000808573ffffffffffffffffffffffffffffffffffffffff1673ffffffffffffffffffffffffffffffffffffffff1681526020019081526020016000206000828254610eea91906116da565b925050819055508273ffffffffffffffffffffffffffffffffffffffff168473ffffffffffffffffffffffffffffffffffffffff167fddf252ad1be2c89b69c2b068fc378daa952ba7f163c4a11628f55a4df523b3ef84604051610f4e9190611688565b60405180910390a3610f61848484611192565b50505050565b6000600560009054906101000a900473ffffffffffffffffffffffffffffffffffffffff16905081600560006101000a81548173ffffffffffffffffffffffffffffffffffffffff021916908373ffffffffffffffffffffffffffffffffffffffff1602179055508173ffffffffffffffffffffffffffffffffffffffff168173ffffffffffffffffffffffffffffffffffffffff167f8be0079c531659141344cd1fd0a4f28419497f9722a3daafe3b4186f6b6457e060405160405180910390a35050565b600073ffffffffffffffffffffffffffffffffffffffff168273ffffffffffffffffffffffffffffffffffffffff16141561109d576040517f08c379a000000000000000000000000000000000000000000000000000000000815260040161109490611668565b60405180910390fd5b6110a96000838361118d565b80600260008282546110bb91906116da565b92505081905550806000808473ffffffffffffffffffffffffffffffffffffffff1673ffffffffffffffffffffffffffffffffffffffff168152602001908152602001600020600082825461111091906116da565b925050819055508173ffffffffffffffffffffffffffffffffffffffff16600073ffffffffffffffffffffffffffffffffffffffff167fddf252ad1be2c89b69c2b068fc378daa952ba7f163c4a11628f55a4df523b3ef836040516111759190611688565b60405180910390a361118960008383611192565b5050565b505050565b505050565b6000813590506111a681611b26565b92915050565b6000813590506111bb81611b3d565b92915050565b6000602082840312156111d357600080fd5b60006111e184828501611197565b91505092915050565b600080604083850312156111fd57600080fd5b600061120b85828601611197565b925050602061121c85828601611197565b9150509250929050565b60008060006060848603121561123b57600080fd5b600061124986828701611197565b935050602061125a86828701611197565b925050604061126b868287016111ac565b9150509250925092565b6000806040838503121561128857600080fd5b600061129685828601611197565b92505060206112a7858286016111ac565b9150509250929050565b6000602082840312156112c357600080fd5b60006112d1848285016111ac565b91505092915050565b6112e381611730565b82525050565b6112f281611742565b82525050565b6000611303826116be565b61130d81856116c9565b935061131d818560208601611785565b61132681611848565b840191505092915050565b600061133e6023836116c9565b915061134982611859565b604082019050919050565b60006113616026836116c9565b915061136c826118a8565b604082019050919050565b60006113846022836116c9565b915061138f826118f7565b604082019050919050565b60006113a7601d836116c9565b91506113b282611946565b602082019050919050565b60006113ca6026836116c9565b91506113d58261196f565b604082019050919050565b60006113ed601a836116c9565b91506113f8826119be565b602082019050919050565b60006114106020836116c9565b915061141b826119e7565b602082019050919050565b60006114336025836116c9565b915061143e82611a10565b604082019050919050565b60006114566024836116c9565b915061146182611a5f565b604082019050919050565b60006114796025836116c9565b915061148482611aae565b604082019050919050565b600061149c601f836116c9565b91506114a782611afd565b602082019050919050565b6114bb8161176e565b82525050565b6114ca81611778565b82525050565b60006020820190506114e560008301846112da565b92915050565b600060208201905061150060008301846112e9565b92915050565b6000602082019050818103600083015261152081846112f8565b905092915050565b6000602082019050818103600083015261154181611331565b9050919050565b6000602082019050818103600083015261156181611354565b9050919050565b6000602082019050818103600083015261158181611377565b9050919050565b600060208201905081810360008301526115a18161139a565b9050919050565b600060208201905081810360008301526115c1816113bd565b9050919050565b600060208201905081810360008301526115e1816113e0565b9050919050565b6000602082019050818103600083015261160181611403565b9050919050565b6000602082019050818103600083015261162181611426565b9050919050565b6000602082019050818103600083015261164181611449565b9050919050565b600060208201905081810360008301526116618161146c565b9050919050565b600060208201905081810360008301526116818161148f565b9050919050565b600060208201905061169d60008301846114b2565b92915050565b60006020820190506116b860008301846114c1565b92915050565b600081519050919050565b600082825260208201905092915050565b60006116e58261176e565b91506116f08361176e565b9250827fffffffffffffffffffffffffffffffffffffffffffffffffffffffffffffffff03821115611725576117246117ea565b5b828201905092915050565b600061173b8261174e565b9050919050565b60008115159050919050565b600073ffffffffffffffffffffffffffffffffffffffff82169050919050565b6000819050919050565b600060ff82169050919050565b60005b838110156117a3578082015181840152602081019050611788565b838111156117b2576000848401525b50505050565b600060028204905060018216806117d057607f821691505b602082108114156117e4576117e3611819565b5b50919050565b7f4e487b7100000000000000000000000000000000000000000000000000000000600052601160045260246000fd5b7f4e487b7100000000000000000000000000000000000000000000000000000000600052602260045260246000fd5b6000601f19601f8301169050919050565b7f45524332303a207472616e7366657220746f20746865207a65726f206164647260008201527f6573730000000000000000000000000000000000000000000000000000000000602082015250565b7f4f776e61626c653a206e6577206f776e657220697320746865207a65726f206160008201527f6464726573730000000000000000000000000000000000000000000000000000602082015250565b7f45524332303a20617070726f766520746f20746865207a65726f20616464726560008201527f7373000000000000000000000000000000000000000000000000000000000000602082015250565b7f45524332303a20696e73756666696369656e7420616c6c6f77616e6365000000600082015250565b7f45524332303a207472616e7366657220616d6f756e742065786365656473206260008201527f616c616e63650000000000000000000000000000000000000000000000000000602082015250565b7f43616c6c6572206973206e6f7420696e2077686974656c697374000000000000600082015250565b7f4f776e61626c653a2063616c6c6572206973206e6f7420746865206f776e6572600082015250565b7f45524332303a207472616e736665722066726f6d20746865207a65726f20616460008201527f6472657373000000000000000000000000000000000000000000000000000000602082015250565b7f45524332303a20617070726f76652066726f6d20746865207a65726f2061646460008201527f7265737300000000000000000000000000000000000000000000000000000000602082015250565b7f45524332303a2064656372656173656420616c6c6f77616e63652062656c6f7760008201527f207a65726f000000000000000000000000000000000000000000000000000000602082015250565b7f45524332303a206d696e7420746f20746865207a65726f206164647265737300600082015250565b611b2f81611730565b8114611b3a57600080fd5b50565b611b468161176e565b8114611b5157600080fd5b5056fea264697066735822122015c585044061c342ee3666cfffca1061fadb6661b4931c681980af22063fd53a64736f6c63430008040033",
  "linkReferences": {},
  "deployedLinkReferences": {}
}